:020000040800F2
:10000000FF4F0020550300086D0200087102000830
:1000100075020008790200087D0200080000000057
:100020000000000000000000000000008102000845
:100030008502000800000000890200088D02000807
:100040009D0300089D0300089D0300089D03000810
:100050009D0300089D0300089D0300089D03000800
:100060009D0300089D0300089D0300089D030008F0
:100070009D0300089D0300089D0300089D030008E0
:100080009D0300089D0300089D0300089D030008D0
:100090009D0300089D0300089D0300089D030008C0
:1000A0009D0300089D0300089D0300089D030008B0
:1000B0009D030008950200089D0300089D030008A9
:1000C0009D0300089D0300089D0300089D03000890
:1000D0009D0300089D0300089D0300089D03000880
:1000E0009D0300089D0300089D0300080000000018
:1000F0000000000000000000000000000000000000
:0C01000000000000000000005FF808F1A3
:10010C0010B5054C237833B9044B13B10448AFF345
:10011C0000800123237010BD30040020000000007B
:10012C00D4120008084B10B51BB108480849AFF3AE
:10013C0000800848036803B910BD074B002BFBD0A7
:10014C00BDE81040184700BF00000000D4120008A2
:10015C00340400203004002000000000FEE700BF43
:10016C0008B5002000F0C0F808BD00BF00B591B084
:10017C0000230B930C930D930E930F930293039305
:10018C0004930793099302230193012205921022F1
:10019C00069208934FF460130A9301A800F0C2FB77
:1001AC0000B1FEE70F230B9302210C9100230D935A
:1001BC000F934FF480630E930BA800F0EFFE00B189
:1001CC00FEE711B05DF804FB08B500F0F9F8FFF795
:1001DC00CDFF002000F060F80F4B1B680F4AA2FB0C
:1001EC0003235B0B013B0E4A13600E480E4A026060
:1001FC0042F20F72C260436000230361836043616B
:10020C0000F00AFB08B1FFF7A9FF064800F002FA5C
:10021C0008B1FFF7A3FFFEE7040000205917B7D180
:10022C004C040020540400200004004000B583B0AE
:10023C000A4BDA6942F00202DA61DB6903F002036D
:10024C000193019B1D200321002200F017FB1D20B0
:10025C0000F046FB03B05DF804FB00BF0010024049
:10026C00704700BFFEE700BFFEE700BFFEE700BF20
:10027C00FEE700BF704700BF704700BF704700BF6C
:10028C0008B500F0AFF808BD08B5024800F0D6F983
:10029C0008BD00BF54040020F0B587B0074648B92C
:1002AC000F4B9A6942F004029A619B6903F00403B4
:1002BC000193019B202502950123039300240494B0
:1002CC0003230593074E56F8270002A900F0A6F861
:1002DC0056F827002946224600F092F907B0F0BDE7
:1002EC00001002400000002008B5034B53F820001A
:1002FC00202100F08BF908BD000000200F4B1A687C
:10030C0042F001021A6059680D4A0A405A601A6894
:10031C0022F0847222F480321A601A6822F480224D
:10032C001A605A6822F4FE025A604FF41F029A6057
:10033C004FF00062034B9A60704700BF0010024000
:10034C000000FFF800ED00E0002103E00B4B5B58D0
:10035C00435004310A480B4B42189A42F6D30A4ACE
:10036C0002E0002342F8043B084B9A42F9D3FFF712
:10037C00C5FF00F009FFFFF727FF704724130008A3
:10038C0000000020300400203004002090040020E5
:10039C00FEE70000704700BF10B5044600F0EEFE0B
:1003AC00064BA3FB0030800900F0A6FA4FF0FF309B
:1003BC002146002200F062FA002010BDD34D6210DD
:1003CC0008B5074A136843F010031360032000F0CC
:1003DC0043FA0F20FFF7E0FFFFF7DCFF002008BD1A
:1003EC0000200240024A136801331360704700BFBB
:1003FC0050040020014B1868704700BF50040020C7
:10040C0010B582B00190FFF7F5FF0446FFF7F2FF3D
:10041C00001B019B9842F9D302B010BDF0B583B01C
:10042C0000273C46DAE00122A2400B6813409342BD
:10043C0040F0D3804D68122D2DD00BD8022D27D033
:10044C0003D85DB3012D1ED035E0032D30D0112D16
:10045C001BD030E0644EB54220D008D8A6F58016EB
:10046C00B5421BD006F58036B54224D116E05F4E5E
:10047C00B54213D006F58036B5420FD0A6F58016DE
:10048C00B54218D10AE0CF6815E0CF68043712E006
:10049C00CF6808370FE0CF680C370CE08D684DB192
:1004AC00012D02D10261082705E04261082702E014
:1004BC00002700E00427FF2B01D8844601E000F15F
:1004CC00040CFF2B02D84FEA840E03E0A4F1080EB3
:1004DC004FEA8E0EDCF800600F2202FA0EF226EACA
:1004EC00020507FA0EF22A43CCF800204A6812F0F3
:1004FC00805F72D03E4A956945F00105956192691D
:10050C0002F001020192019A4FEA940E0EF10205DB
:10051C00384A52F8256004F0030C4FEA8C0C0F2279
:10052C0002FA0CF226EA0205334A904213D002F585
:10053C00806290420DD002F58062904207D002F5A5
:10054C008062904201D1032206E0042204E00222E0
:10055C0002E0012200E0002202FA0CF22A430EF122
:10056C00020E244D45F82E204A6812F4803F05D027
:10057C0005F580652A681A432A6004E01F4D2A6835
:10058C0022EA03022A604A6812F4003F04D01B4D91
:10059C006A681A436A6004E0184D6A6822EA03022A
:1005AC006A604A6812F4801F04D0144DAA681A437A
:1005BC00AA6004E0114DAA6822EA0302AA604A6804
:1005CC0012F4001F04D00D4DEA681343EB6004E0F5
:1005DC000A4DEA6822EA0303EB6001340F2C7FF624
:1005EC0022AF03B0F0BD00BF00002110000031109D
:1005FC0000100240000001400008014000040140CE
:10060C000AB101617047090401617047C368594020
:10061C00C16070470268D36843F00103D36002687D
:10062C00136843F00103136000207047704700BF4C
:10063C00704700BF704700BF704700BF10B504463D
:10064C0003681A6912F0020F17D0DA6812F0020F61
:10065C0013D06FF002021A610123037603689B69C1
:10066C0013F0030F02D0FFF7E3FF04E0FFF7DEFF08
:10067C002046FFF7DFFF0023237623681A6912F068
:10068C00040F19D0DA6812F0040F15D06FF00402C1
:10069C001A610223237623689B6913F4407F03D0ED
:1006AC002046FFF7C5FF05E02046FFF7BFFF2046B9
:1006BC00FFF7C0FF0023237623681A6912F0080F96
:1006CC0019D0DA6812F0080F15D06FF008021A6111
:1006DC00042323762368DB6913F0030F03D0204631
:1006EC00FFF7A6FF05E02046FFF7A0FF2046FFF727
:1006FC00A1FF0023237623681A6912F0100F19D07A
:10070C00DA6812F0100F15D06FF010021A6108237E
:10071C0023762368DB6913F4407F03D02046FFF770
:10072C0087FF05E02046FFF781FF2046FFF782FF99
:10073C000023237623681A6912F0010F09D0DA68B6
:10074C0012F0010F05D06FF001021A612046FFF77D
:10075C0007FD23681A6912F0800F09D0DA6812F0CD
:10076C00800F05D06FF080021A61204600F072F8FD
:10077C0023681A6912F0400F09D0DA6812F0400FA2
:10078C0005D06FF040021A612046FFF755FF236831
:10079C001A6912F0200F09D0DA6812F0200F05D078
:1007AC006FF020021A61204600F052F810BD00BF15
:1007BC000368184A90420AD0B0F1804F07D0A2F5D6
:1007CC009432904203D002F58062904203D123F020
:1007DC0070034A6813430F4A90420AD0B0F1804F1D
:1007EC0007D0A2F59432904203D002F58062904279
:1007FC0003D123F44073CA68134303608B68C3624C
:10080C000B688362034B984201D10B69036301238C
:10081C0043617047002C0140C0B110B5044690F8FC
:10082C00393013F0FF0F04D1002380F83830FFF774
:10083C00FDFC022384F83930214651F8040BFFF7F4
:10084C00B7FF012384F83930002010BD0120704718
:10085C00704700BF704700BF00F00700064AD3681E
:10086C0023F4E0631B041B0C43EA002040F0BF6040
:10087C0040F40030D060704700ED00E030B4164B0F
:10088C00DC68C4F30224C4F10705042D28BF042539
:10089C00231D062B01D9033C00E00024012303FA9D
:1008AC0005F5013D2940A140A340013B1A400A43F4
:1008BC00002806DA00F00F001201D2B2074B1A54CE
:1008CC0007E01201D2B200F1604000F5614080F8FF
:1008DC00002330BC704700BF00ED00E014ED00E0D9
:1008EC00410900F01F0001238340024A42F82130E5
:1008FC00704700BF00E100E00138B0F1807F0AD200
:10090C00064B5860F021064A82F8231000209860AC
:10091C0007221A6070470120704700BF10E000E00A
:10092C0000ED00E030B583B00446036813F0010F0E
:10093C0000F09680B24B5B6803F00C03042B0AD0DA
:10094C00AF4B5B6803F00C03082B1BD1AC4B5B6803
:10095C0013F4803F16D04FF4003393FAA3F3A84B53
:10096C001A684FF4003393FAA3F3B3FA83F303F04A
:10097C001F0322FA03F313F0010F71D06368002BED
:10098C006ED19EE26368B3F5803F05D19C4A136833
:10099C0043F48033136026E063B903F1804303F51D
:1009AC0004331A6822F480321A601A6822F4802206
:1009BC001A6018E0B3F5A02F0CD103F18043A3F516
:1009CC003C331A6842F480221A601A6842F480326E
:1009DC001A6008E08A4B1A6822F480321A601A688E
:1009EC0022F480221A606368EBB1FFF703FD054621
:1009FC0005E0FFF7FFFC401B642800F264824FF413
:100A0C00003393FAA3F37E4B1A684FF4003393FA36
:100A1C00A3F3B3FA83F303F01F0322FA03F313F0E7
:100A2C00010FE6D01CE0FFF7E5FC054605E0FFF7FB
:100A3C00E1FC401B642800F248824FF4003393FA27
:100A4C00A3F36F4B1A684FF4003393FAA3F3B3FA82
:100A5C0083F303F01F0322FA03F313F0010FE6D123
:100A6C00236813F0020F00F09080654B5B6813F065
:100A7C000C0F0AD0624B5B6803F00C03082B27D1D8
:100A8C005F4B5B6813F4803F22D1022393FAA3F3EC
:100A9C005B4B1A68022393FAA3F3B3FA83F303F0C4
:100AAC001F0322FA03F313F0010F03D02369012B68
:100ABC0040F00D825248036823F0F8016369F82274
:100ACC0092FAA2F2B2FA82F293400B4303605CE01A
:100ADC0023699BB3012292FAA2F3B3FA83F39B002E
:100AEC0003F1844303F584031A60FFF783FC054686
:100AFC0005E0FFF77FFC401B022800F2EA8102238D
:100B0C0093FAA3F33E4B1A68022393FAA3F3B3FAB6
:100B1C0083F303F01F0322FA03F313F0010FE8D061
:100B2C003748036823F0F8016369F82292FAA2F2BD
:100B3C00B2FA82F293400B43036026E0012393FA4E
:100B4C00A3F3B3FA83F39B0003F1844303F584030B
:100B5C0000221A60FFF74EFC054605E0FFF74AFC41
:100B6C00401B022800F2B781022393FAA3F3244B13
:100B7C001A68022393FAA3F3B3FA83F303F01F0367
:100B8C0022FA03F313F0010FE8D1236813F0080FD6
:100B9C0052D0A3693BB3012292FAA2F3B3FA83F3C6
:100BAC00184941F82320FFF725FC054605E0FFF71F
:100BBC0021FC401B022800F29081022393FAA3F23D
:100BCC0093FAA3F20E4A526A93FAA3F3B3FA83F39D
:100BDC0003F01F0322FA03F313F0010FE7D00120F7
:100BEC00FFF70EFC28E0012393FAA3F3B3FA83F387
:100BFC000021044A42F82310FFF7FCFB054609E0EC
:100C0C000010024080044242FFF7F4FB401B022814
:100C1C0000F26581022393FAA3F293FAA3F2B94A84
:100C2C00526A93FAA3F3B3FA83F303F01F0322FA85
:100C3C0003F313F0010FE7D1236813F0040F00F056
:100C4C009F80B04BDA6942F08052DA61DB6903F0C5
:100C5C0080530193019BAC4A136843F48073136077
:100C6C00FFF7C8FB054605E0FFF7C4FB401B6428F3
:100C7C0000F23781A44B1B6813F4807FF4D0E36837
:100C8C00012B05D19F4A136A43F00103136222E042
:100C9C0063B903F1804303F504331A6A22F00102AD
:100CAC001A621A6A22F004021A6214E0052B09D1A6
:100CBC00944B1A6A42F004021A621A6A42F0010258
:100CCC001A6208E08F4B1A6A22F001021A621A6A41
:100CDC0022F004021A62E3684BB3FFF78BFB054664
:100CEC0007E0FFF787FB401B41F28833984200F284
:100CFC00FA80022393FAA3F293FAA3F3B3FA83F3E1
:100D0C0043F040035B09022B02D17E4B1A6A01E0CF
:100D1C007C4B5A6A022393FAA3F3B3FA83F303F0DE
:100D2C001F0322FA03F313F0010FDAD028E0FFF7C8
:100D3C0061FB054607E0FFF75DFB401B41F2883382
:100D4C00984200F2D280022393FAA3F293FAA3F30F
:100D5C00B3FA83F343F040035B09022B02D1694BD6
:100D6C001A6A01E0674B5A6A022393FAA3F3B3FAA7
:100D7C0083F303F01F0322FA03F313F0010FDAD10C
:100D8C00E369002B00F0B3805E4A526802F00C025B
:100D9C00082A00F0AE80022B68D14FF0807393FAD2
:100DAC00A3F3B3FA83F39B0003F1844303F58403A9
:100DBC0000221A60FFF71EFB054605E0FFF71AFB41
:100DCC00401B022800F297804FF0007393FAA3F3B4
:100DDC004C4B1A684FF0007393FAA3F3B3FA83F3F6
:100DEC0003F01F0322FA03F313F0010FE6D1236A79
:100DFC00B3F5803F06D143494B6823F40032A36816
:100E0C0013434B603F48436823F47411236A626AAE
:100E1C0013430B4343604FF0807393FAA3F3B3FA7D
:100E2C0083F39B0003F1844303F5840301221A60CE
:100E3C00FFF7E0FA044604E0FFF7DCFA001B022897
:100E4C005BD84FF0007393FAA3F32E4B1A684FF054
:100E5C00007393FAA3F3B3FA83F303F01F0322FA9C
:100E6C0003F313F0010FE7D0002049E04FF080733B
:100E7C0093FAA3F3B3FA83F39B0003F1844303F5D2
:100E8C00840300221A60FFF7B5FA044604E0FFF76A
:100E9C00B1FA001B022832D84FF0007393FAA3F377
:100EAC00184B1A684FF0007393FAA3F3B3FA83F359
:100EBC0003F01F0322FA03F313F0010FE7D1002014
:100ECC001EE001201CE003201AE0032018E00120A2
:100EDC0016E0032014E0032012E0032010E00320AE
:100EEC000EE003200CE003200AE0032008E00020C1
:100EFC0006E0012004E0032002E0032000E00320D0
:100F0C0003B030BD001002400070004030B486B019
:100F1C001E4D02AC28686968AA68EB680FC42B8A5E
:100F2C00ADF804301A4B5A6802F00C03082B28D188
:100F3C0002F470134FF4701191FAA1F1B1FA81F12E
:100F4C00CB4006A90B4413F8103C12F4803F14D08C
:100F5C000F4A526802F400324FF4003191FAA1F1B9
:100F6C00B1FA81F1CA4006A90A4412F8140C094AD4
:100F7C00B2FBF0F003FB00F004E0074800FB03F0C9
:100F8C0000E0044806B030BC704700BFEC1200080B
:100F9C000010024000127A0000093D0070B5734B3E
:100FAC001B6803F007038B420BD2704A136823F0C3
:100FBC0007030B431360136803F007038B4240F0E5
:100FCC00C580036813F0020F06D0694C636823F0E8
:100FDC00F0028368134363600D460446036813F004
:100FEC00010F75D04268012A13D14FF4003393FAE4
:100FFC00A3F35F4B19684FF4003393FAA3F3B3FADE
:10100C0083F303F01F0321FA03F313F0010F27D12D
:10101C009EE0022A13D14FF0007393FAA3F3544BC2
:10102C0019684FF0007393FAA3F3B3FA83F303F048
:10103C001F0321FA03F313F0010F11D18AE00223ED
:10104C0093FAA3F34A4B1968022393FAA3F3B3FA66
:10105C0083F303F01F0321FA03F313F0010F7BD08A
:10106C0043494B6823F0030313434B60FFF7C2F96A
:10107C0006466368012B0ED106E0FFF7BBF9801B17
:10108C0041F28833984269D8394B5B6803F00C0302
:10109C00042BF2D11CE0022B15D106E0FFF7AAF9C4
:1010AC00801B41F2883398425AD8314B5B6803F06D
:1010BC000C03082BF2D10BE0FFF79CF9801B41F2DB
:1010CC00883398424ED82A4B5B6813F00C0FF3D13F
:1010DC00264B1B6803F00703AB420AD9234A13685B
:1010EC0023F007032B431360136803F00703AB4291
:1010FC003AD1236813F0040F06D01D494B6823F432
:10110C00E062E36813434B60236813F0080F07D0C9
:10111C00174A536823F46053216943EAC1035360AF
:10112C00FFF7F4FE124B5B6803F0F003F02292FA27
:10113C00A2F2B2FA82F2D3400E4AD35CD8400E4BE4
:10114C0018600F20FFF728F9002070BD012070BD3A
:10115C00012070BD012070BD012070BD032070BD49
:10116C00032070BD032070BD012070BD0020024023
:10117C00001002400013000804000020014B186806
:10118C00704700BF0400002070B50F4E0F4D761B4A
:10119C00B61018BF002405D0013455F8043B98470D
:1011AC00A642F9D10A4E0B4D00F08EF8761BB61004
:1011BC0018BF002406D0013455F8043B9847A642CA
:1011CC00F9D170BD70BD00BF1813000818130008CA
:1011DC002013000818130008024B13B1024800F04A
:1011EC0005B87047000000000512000801460020F9
:1011FC000246034600F016B838B5084B084DED1AF8
:10120C00AC1018BFED1805D0013C55F8043D9847BB
:10121C00002CF9D1BDE8384000F05CB82013000870
:10122C00241300082DE9F047254C0646256888460E
:10123C00D5F8484192469946C4B360681F2817DC1C
:10124C00411C76B104EB8003C3F888A0D4F8885114
:10125C00012282401543022EC4F88851C3F808912C
:10126C001ED0831C6160002044F82380BDE8F08709
:10127C00144B03B34FF4C870AFF300800446D0B1E5
:10128C00D5F84831002784E888003846C5F848412D
:10129C000121C4F88871C4F88C71002EE1D0D1E71B
:1012AC00D4F88C311A43C4F88C21DAE705F5A6740E
:1012BC00C5F84841C1E74FF0FF30BDE8F08700BFEB
:1012CC001413000800000000F8B500BFF8BC08BCFF
:1012DC009E467047F8B500BFF8BC08BC9E467047E8
:1012EC0002030405060708090A0B0C0D0E0F10105B
:1012FC0001020000000000000000000001020304D5
:0C130C000607080943000000080000204C
:08131800E51100083101000895
:041320000D010008B3
:101324000008014000A24A0400000000F40200206A
:101334005C030020C4030020000000000000000043
:101344000000000000000000000000000000000099
:10135400000000000000000000000000101300085E
:101364000000000000000000000000000000000079
:101374000000000000000000000000000000000069
:101384000000000000000000000000000000000059
:101394000000000000000000000000000000000049
:1013A4000000000000000000000000000000000039
:1013B4000000000000000000000000000000000029
:1013C4000000000000000000000000000000000019
:1013D40001000000000000000E33CDAB34126DE6B6
:1013E400ECDE05000B00000000000000000000001F
:1013F40000000000000000000000000000000000E9
:1014040000000000000000000000000000000000D8
:1014140000000000000000000000000000000000C8
:1014240000000000000000000000000000000000B8
:040000050800035597
:00000001FF
